:100000003BEF00F00000000000EF00F000000000F7
:0A0010000000000000000000F3D71C
:10001C001FC0C9FFC7B002D00000FCD7C9CF00F089
:02002C001200C0
:10002E0082901EC000F0016A00C01FF0F0DF1DC0FC
:08003E001FF0EDDF82801200CB
:10004600FF0E156EFF0E166EFF0E176EFF0E186E64
:100056001C0E196E000E1A6E1F0E1B6E000E1C6E05
:10006600949A94969488C66A400EC76EC68A120001
:10007600946A8280E5DF000E1D6E300E1E6E3F0E06
:100086001E5C02E1FF0E1D5C09E2CEDF060E0D6E60
:100096000D2EFED700001D4A1E2AF1D7FF0E1D6E3B
:1000A6003F0E1E6E1E50300802E11D5000080BE286
:1000B600BBDF060E0D6E0D2EFED70000010E1D5E77
:0A00C600000E1E5AEFD7D7D7FFD760
:020000040030CA
:0D000100220F0EFF0181FF0FC00FE00F4026
:00000001FF
