:100000000EEF00F00000000000EF00F00000000024
:0A0010000000000000000000F3D71C
:10001C00010E156E020E166E040E176E080E186E7B
:10002C00100E196E200E1A6E400E1B6E800E1C6E7A
:10003C00070EC16E946A826A016A080E015C2FE297
:10004C00150EE96E000EEA6E0150E926D8B0EA2AC8
:10005C00EECF82FF030E0B6E080E0C6E770E0D6E3C
:10006C000D2EFED70C2EFCD70B2EFAD7150EE96EE3
:10007C00000EEA6E0150E926D8B0EA2AEECF82FFD4
:10008C00020E0B6E040E0C6EBA0E0D6E0D2EFED7FC
:10009C000C2EFCD70B2EFAD70000012ACED7CCD7CA
:0200AC00FFD77C
:020000040030CA
:0D000100220F0EFF0181FF0FC00FE00F4026
:00000001FF
