:100000000EEF00F00000000000EF00F00000000024
:0A0010000000000000000000F3D71C
:10001C00810E156E420E166E240E176E180E186E8B
:10002C00180E196E240E1A6E420E1B6E810E1C6E6B
:10003C00070EC16E946A016A080E015C2FE2150E60
:10004C00E96E000EEA6E0150E926D8B0EA2AEECF2E
:10005C0082FF030E0B6E080E0C6E770E0D6E0D2EBE
:10006C00FED70C2EFCD70B2EFAD7150EE96E000E10
:10007C00EA6E0150E926D8B0EA2AEECF82FF020ED2
:10008C000B6E040E0C6EBA0E0D6E0D2EFED70C2ED2
:10009C00FCD70B2EFAD70000012ACED7CCD7FFD72E
:020000040030CA
:0D000100220F0EFF0181FF0FC00FE00F4026
:00000001FF
