:040000007BEF0AF098
:1000080000C018F001C017F00CC016F00DC015F0B4
:100018009EAC0BD02B6A2C6AC4CF2CF02B6AC35031
:100028002B26000E2C22FAEC08F0F2A406D08270DF
:100038000B0ED76EDC0ED66EC284F0A205D0192A3C
:10004800070E1916FAEC08F09E9CF294F09218C06C
:1000580000F017C001F016C00CF015C00DF011002B
:100068000F0E0C6E470E0D6E0D2EFED70C2EFCD704
:0600780000000000120070
:06007E000000000012006A
:0A008400210E0D6E0D2EFED71200A6
:08008E000AAE029E000E1200F2
:100096000B840BAE56EF00F0010E036E026A016A86
:0A00A600006A0A360232FF0E120053
:1000B0000B820BAE62EF00F0036802680168006813
:0800C0000A360232FF0E1200A5
:1000C80053BE02D0839E01D0838E53BC02D0839C42
:1000D80001D0838C53BA02D0839A01D0838A53B853
:1000E80002D0839801D083883BB002D0838401D0AA
:1000F80083948386C0DF839653B602D0839E01D053
:10010800838E53B402D0839C01D0838C53B202D027
:10011800839A01D0838A53B002D0839801D0838810
:100128003BB002D0838401D083948386A4DF839676
:0C0138003BA002D095DF01D0A1DF120037
:0E014400026A016A006A086A036A000E12006D
:100152000A6A0350D8A40A800750D8A40A820A5017
:10016200D8B40CEF01F0030AD8B4C5EF00F00AB01E
:10017200C0EF00F006AE0AEF01F008EF01F002AEA8
:1001820008EF01F00AEF01F00250800B0A6E029EA6
:100192000650800B069E0A18D8B4D6EF00F00A501B
:1001A200D8B408EF01F00AEF01F00750035CD8B4AD
:1001B200E0EF00F0D8A0FCEF00F002EF01F00650F3
:1001C200025CD8B4EAEF00F0D8A0FCEF00F002EF36
:1001D20001F00550015CD8B4F4EF00F0D8A0FCEFB8
:1001E20000F002EF01F00450005CD8B40CEF01F013
:1001F200D8B002EF01F00A52D8B40AEF01F008EFCA
:1002020001F00A52D8B408EF01F00AEF01F0D880E9
:0E0212001200D8901200D880D884120012007A
:100220000C6A0E6A0250D8A429EF01F001C002F056
:1002300000C001F0006A0E860250D8A429EF01F038
:1002400001C002F0016A0E960E880250D8B43BEF4E
:1002500001F00E50035ED8A4D8A040EF01F0D89072
:1002600002BE45EF01F0003601360236032E30EFB4
:1002700001F040EF01F0010E0C6E64DF48EF01F079
:10028000020E0C6E08DF48EF01F0040E0C6EFFDE6C
:0202900012005A
:080292000B6A0B86FF0E12003F
:0C029A003B904FC053F013DF3B8012007C
:1002A6000D6A086A0050D8B4000C04180A6E0ABE1B
:1002B6000D1E0B6A04AE02D0041E042A00AE02D044
:1002C600001E002A005004100A6E0ABE1FD00450F9
:1002D600085E003600340836045008260036060E3E
:1002E6000C6E00340836045000B0085E00A00826E4
:1002F60000360C2EF6D700A008260BB015D00DAE92
:10030600000C001E002A081E082A000C04AE09D0A4
:1003160000BE04D00050086E006AF1D7006A002AB9
:10032600000C001E0B2AD3D7082A0450085CD8A458
:0E033600E6D7086A002A00AEE2D7FF0C1200DC
:100344004FC004F050C005F004C002F005C003F033
:10035400044A052A51C000F052C001F0514A522A01
:1003640000C0E9FF01C0EAFF02C0E1FF03C0E2FFF1
:10037400EECFE6FF02C0E9FF03C0EAFFEE5201E060
:0C038400E3D74FC000F050C001F01200A1
:100390000CB00AEF02F00CA2B0EF02F00E6A000EF1
:1003A000026421EF02F0F00E0214D8A4ECEF01F089
:1003B000023A01380F0B02260138F00B016E0038AB
:1003C0000F0B01260038F00B006E08380F0B0026CB
:1003D0000838F00B086E0E84D89002BE05EF02F0CC
:1003E00008360036013602360E2A02BE05EF02F04C
:1003F00008360036013602360E2A02BE05EF02F03C
:1004000008360036013602360E2A0E500364A6EF77
:1004100002F0035E0BBC08AEABEF02F0D880800E9A
:1004200008640030000E002201220222D8A0ABEFA7
:1004300002F0023201320032034AB0EF02F0ABEFB9
:1004400002F001C002F000C001F008C000F0086A2C
:10045000000E0E86026458EF02F0F00E0214D8A4CB
:1004600040EF02F0023A01380F0B02260138F00B80
:10047000016E00380F0B01260038F00B006E0E8461
:10048000D89002BE05EF02F00036013602360E2A81
:1004900002BE05EF02F00036013602360E2A02BE19
:1004A00005EF02F00036013602360E2A05EF02F0A3
:1004B00001C002F000C001F0006A000E0E960E8826
:1004C000026485EF02F0F00E0214D8A470EF02F07F
:1004D000023A01380F0B02260138F00B016E0E8430
:1004E000D89002BE05EF02F0013602360E2A02BE97
:1004F00005EF02F0013602360E2A02BE05EF02F0C9
:10050000013602360E2A05EF02F001C002F0016A40
:10051000000E0E860264B5EF02F0F00E0214D8A4AD
:1005200094EF02F0023A0E84D89002BE05EF02F07A
:1005300002360E2A02BE05EF02F002360E2A02BE75
:1005400005EF02F002360E2A05EF02F0010E0C6EE6
:10055000A2DDB8EF02F0020E0C6E99DDB8EF02F0EA
:10056000040E0C6EA5DDB8EF02F0080E0C6EEADD8D
:02057000120077
:10057200086A096A000E076203643EEF03F0025044
:1005820006180A6E075003267E0ED8A0CFEF02F09F
:10059200035ED8B042EF03F0D3EF02F0035ED8A0BF
:1005A20046EF03F0028E068E02C00EF001C00BF081
:1005B20000C00DF000500402F4CF0CF0015005020F
:1005C200F4CF00F0F3CF08F00402F3500C26F450FD
:1005D2000822000E00220D500502F3500C26F450A2
:1005E2000822000E002202500402F3500826F450A2
:1005F200002202500502016A000E0122F350002679
:10060200F45001220D500602F3500826F450002245
:10061200026A000E012202220B500602F35000264B
:10062200F4500122000E02220E500602F35001265F
:10063200F450022202BE26EF03F0083600360136DD
:1006420002360306D8B446EF03F039EF03F0D88040
:10065200800E08640030000E002201220222D8A07F
:1006620039EF03F0023201320032034A42EF03F063
:100672000AAE029E000E48EF03F0010E62DD48EF63
:1006820003F0020E14DD48EF03F0040E03DD120046
:100692004D6A4E6A41C049F042C04AF043C04BF035
:1006A20044C04CF04C50FF0A08E14B50FF0A05E1F0
:1006B2004A50FF0A02E14950FF0A0CE145C04FF0DF
:1006C20046C050F0200E516E000E526E3ADE030EFE
:1006D200006EE9D1010E476E4BAE0ED0800E4B1864
:1006E200006E00C04BF0472A45C0E1FF46C0E2FF62
:1006F2002D0EE66E454A462A000E006E4C1808E1A1
:1007020000504B1805E100504A1802E14950000A16
:100712000BE145C04FF046C050F01E0E516E000E68
:10072200526E0FDE006ABFD14C50FF0A08E14B50F7
:10073200000A05E14A50000A02E14950000A0CE1B0
:1007420045C04FF046C050F01A0E516E000E526E68
:10075200F8DD47C000F0A7D1000E046E000E056E52
:10076200000E066E7F0E076E49C000F04AC001F00F
:100772004BC002F04CC003F0EBDC010ED8B0000E0F
:10078200006E00521BE049C000F04AC001F04BC0AD
:1007920002F04CC003F0000E046E000E056E200E37
:1007A200066E820E076EE4DE00C049F001C04AF018
:1007B20002C04BF003C04CF04E06CED7000E046EC2
:1007C200000E056E200E066E820E076E49C000F006
:1007D2004AC001F04BC002F04CC003F0B9DC000E7D
:1007E200D8B0010E006E00521BE049C000F04AC0B2
:1007F20001F04BC002F04CC003F0CD0E046ECC0EE3
:10080200056E4C0E066E7B0E076EB2DE00C049F01E
:1008120001C04AF002C04BF003C04CF04E2ACED7C2
:10082200FF0E4914086EFF0E4A14096E7F0E4B1418
:100832000A6E000E4C140B6E08C004F009C005F0DD
:100842000AC006F00BC007F00436049005360636DF
:100852000736000E4914006E000E4A14016E000E97
:100862004B14026EFF0E4C14036E00C049F001C01F
:100872004AF002C04BF003C04CF004504910006E25
:1008820005504A10016E06504B10026E07504C1074
:10089200036E00C049F001C04AF002C04BF003C031
:1008A2004CF07F0E4C5C006E00C048F0010E4C6EA6
:1008B20000C004F049C000F04AC001F04BC002F091
:1008C2004CC003F0045007E00036009001360236B7
:1008D2000336FF0FF8D700C049F001C04AF002C04A
:1008E2004BF003C04CF045C0E1FF46C0E2FF4C5064
:1008F200300FE66E454A462A800E4E18006E800E74
:10090200010A005C08E3800E060A006E800E4E1893
:10091200005C01E30AD045C0E1FF46C0E2FF2E0EB3
:10092200E66E454A462A010E4D6E060E486E485046
:10093200000A54E04C6A49C000F04AC001F04BC0C2
:1009420002F04CC003F00036009001360236033646
:1009520000360090013602360336495000264A50CE
:1009620001224B5002224C50032200C049F001C028
:100972004AF002C04BF003C04CF049C000F04AC03C
:1009820001F04BC002F04CC003F00036009001367B
:100992000236033600C049F001C04AF002C04BF0F3
:1009A20003C04CF045C0E1FF46C0E2FF4C50300F9F
:1009B200E66E454A462A4D50000A0EE14E064E505A
:1009C200000A0AE145C0E1FF46C0E2FF2E0EE66ED4
:1009D200454A462A010E4D6E4806A9D7FF0E452408
:1009E200E96EFF0E4620EA6EEE50300A05E1010E76
:1009F200455E000E465AF2D7FF0E4524E96EFF0E01
:100A02004620EA6EEE502E0A04E1010E455E000E0B
:100A1200465A4E50000A41E045C0E1FF46C0E2FF9F
:100A2200650EE66E454A462A800E4E18006E800E0E
:100A3200000A005C0BE245C0E1FF46C0E2FF2D0E5A
:100A4200E66E454A462A4E5000084E6E4EC048F0A9
:100A5200800E090A006E800E4E18005C0EE20A0E2D
:100A6200046E48C000F01EDC45C0E1FF46C0E2FF54
:100A72000050300FE66E454A462A0A0E046E48C000
:100A820000F010DC08C000F045C0E1FF46C0E2FF04
:100A92000050300FE66E454A462A45C0E1FF46C087
:080AA200E2FFE66A006A12009F
:100AAA000050086E0150006E016A026A036A0B6AFE
:100ABA000C6A960E036E0A6A00C001F008C000F0C4
:0A0ACA00086A026A10EC01F0120045
:100AD400436A43504124E96E000E4220EA6EEE520E
:100AE4000CE043504124E96E000E4220EA6EEECF42
:0C0AF4004FF04DEC01F0432AECD712004B
:100B00000450000A12E10550000A0FE10650000AE5
:100B10000CE10750000A09E1FF0E006EFF0E016EA6
:100B20007F0E026EFF0E036EA8D0086A096A075096
:100B3000D8B42BEF06F00350D8B430EF06F00250D3
:100B400006180A6E028E068E0E6A02C008F001C0F8
:100B50000CF000C00DF004500D5E0550D8A0053C0F
:100B60000C5E0650D8A0063C085E086A0C6A0D6A46
:100B7000D8A0C2EF05F0D89002320132003208321C
:100B8000010E0E6E0750035ED8A0CFEF05F07E0E6B
:100B90000E240326D8B035EF06F0D5EF05F07E0E13
:100BA0000E240326D8A03AEF06F0180E0B6E0D3671
:100BB0000C3608360036013602360E360450005E1A
:100BC0000550D8A0053C015E0650D8A0063C025E48
:100BD00006340E120EA0F0EF05F00D80FBEF05F0CD
:100BE000045000260550D8B0053C01260650D8B068
:100BF000062802260D900B2ED7EF05F021EF06F008
:100C0000D8900036013602360E360450005E05508C
:100C1000D8A0053C015E0650D8A0063C025E063412
:100C20000E10010B0D26D8B00C2AD8B4082AD8A46F
:100C300021EF06F008320C320D32032AD8B435EF1A
:100C400006F00AAE089E0850026E0C50016E0D5060
:100C5000006E3DEF06F0010E49EC01F03DEF06F0AD
:100C6000020EA2EC00F03DEF06F0040E58EC00F08E
:0C0C70003DEF06F0080E4BEC00F0120007
:100C7C00025006180E6E086A096A0B6A0350076464
:100C8C0031EF07F006500A6E068E028E03500B6E83
:100C9C000750036E000E0B6481EF06F00B50075EDD
:100CAC00D8B422EF07F0070E0764F0EF06F0075EEA
:100CBC0000C008F001C000F002C001F0026A074E4B
:100CCC0022EF07F00764C5EF06F0075E00C008F0DE
:100CDC0001C000F0016A074E22EF07F00764A3EF92
:100CEC0006F0075E00C008F0006A074E22EF07F01E
:100CFC0007648AEF06F00AC002F005C001F004C0D8
:100D0C0000F0086A4EEF08F0030E076495EF06F04A
:100D1C00075E08380F0B086E074E22EF07F0D890CD
:100D2C000832074E22EF07F0D8900832074E22EF18
:100D3C0007F0D890083222EF07F0030E0764B4EFE7
:100D4C0006F0075E08380F0B086E0038F00B08260B
:100D5C0000380F0B006E074E22EF07F0D8900032D0
:100D6C000832074E22EF07F0D89000320832074EB7
:100D7C0022EF07F0D8900032083222EF07F0030E72
:100D8C000764DCEF06F0075E08380F0B086E0038BE
:100D9C00F00B082600380F0B006E0138F00B002604
:100DAC0001380F0B016E074E22EF07F0D89001327D
:100DBC0000320832074E22EF07F0D8900132003291
:100DCC000832074E22EF07F0D89001320032083279
:100DDC0022EF07F0030E07640DEF07F0075E0838EB
:100DEC000F0B086E0038F00B082600380F0B006E46
:100DFC000138F00B002601380F0B016E0238F00B96
:100E0C00012602380F0B026E074E22EF07F0D89026
:100E1C000232013200320832074E22EF07F0D8902E
:100E2C000232013200320832074E22EF07F0D8901E
:100E3C000232013200320832096A000E0EAE16EF91
:100E4C0008F0081E001E011E021E082A00220122A4
:100E5C00022216EF08F00750D8A437EF07F04EEF38
:100E6C0008F0096A02C00AF0028E068E0750035C75
:100E7C00076ED8B409EF08F0070E0764D7EF07F038
:100E8C00075E0450096E0550046E0650056E066A26
:100E9C00074E09EF08F0070E0764ACEF07F0075E8A
:100EAC000450096E0550046E056A074E09EF08F0F0
:100EBC00070E07648AEF07F0075E0450096E046A98
:100ECC00074E09EF08F0070E076471EF07F00AC030
:100EDC0002F04EEF08F0030E07647CEF07F0075E9C
:100EEC0009380F0B096E074E09EF08F0D89009323C
:100EFC00074E09EF08F0D8900932074E09EF08F0B9
:100F0C00D890093209EF08F0030E07649BEF07F045
:100F1C00075E09380F0B096E0438F00B09260438EC
:100F2C000F0B046E074E09EF08F0D890043209320B
:100F3C00074E09EF08F0D89004320932074E09EF3A
:100F4C0008F0D8900432093209EF08F0030E076458
:100F5C00C3EF07F0075E09380F0B096E0438F00B6E
:100F6C00092604380F0B046E0538F00B04260538DF
:100F7C000F0B056E074E09EF08F0D89005320432BE
:100F8C000932074E09EF08F0D890053204320932C5
:100F9C00074E09EF08F0D89005320432093209EFF8
:100FAC0008F0030E0764F4EF07F0075E09380F0B27
:100FBC00096E0438F00B092604380F0B046E053843
:100FCC00F00B042605380F0B056E0638F00B0526C2
:100FDC0006380F0B066E074E09EF08F0D890063254
:100FEC00053204320932074E09EF08F0D890063268
:100FFC00053204320932074E09EF08F0D890063258
:10100C00053204320932086A000E0EAE16EF08F0F3
:10101C00091E041E051E061E092A0422052206228C
:10102C0009500826045000220550012206500222C5
:10103C000EBE2DEF08F0D8A03CEF08F002320132C2
:10104C0000320832033E3CEF08F048EF08F0D8B00D
:10105C0042EF08F0000E081E001E011E021E082A98
:10106C000022012202220A7E42EF08F0010E0C6ED1
:10107C00C8EC01F050EF08F0020E0C6EC8EC01F059
:10108C0050EF08F0040E0C6E58EC00F050EF08F026
:06109C00000E0C6E1200B4
:1010A2000FD0800E416E19D0C00E416E16D0940E34
:1010B200416E13D0D40E416E10D0800E416E0DD011
:1010C2004150010AEEE04150020AEEE04150030AAB
:1010D200EEE04150040AEEE0F0D74204006E4150C7
:1010E200002600C041F000C053F064EC00F03B90D9
:1010F200456A45504324E96E000E4420EA6EEE52E2
:101102000CE045504324E96E000E4420EA6EEECF17
:0E1112004FF04DEC01F0452AECD73B80120067
:101120000900F5CFE6FF0006FBE10106F9E1120038
:10113000959695949598959A959C959E839683946B
:10114000839E839C839A839834EC00F034EC00F007
:1011500034EC00F0838A838883863FEC00F083962A
:1011600034EC00F083863FEC00F0839634EC00F022
:1011700083863FEC00F0839634EC00F083988386FE
:101180003FEC00F0839634EC00F083863FEC00F0F7
:101190008396839A838E83863FEC00F0839634ECAB
:1011A00000F0839E838883863FEC00F083968398CB
:1011B00083863FEC00F0839634EC00F083863FECAE
:1011C00000F08396838883863FEC00F0839634ECAE
:1011D00000F0839883863FEC00F08396838E838CA7
:1011E000838A838883863FEC00F0839634EC00F09A
:0411F0003B8012002E
:1011F4002BC000F02CC001F056DC000E046E000E73
:10120400056E200E066E770E076EB9EC02F09A0E8C
:10121400046E990E056E310E066E830E076EB9ECE0
:1012240002F000C03CF001C03DF002C03EF003C03B
:101234003FF0000E046E000E056E280E066E820E40
:10124400076E1ADD00C03CF001C03DF002C03EF064
:1012540003C03FF0406A070E405C0BE2240EE16ECF
:10126400000EE26E4050E126D8B0E22AE66A402A37
:10127400F2D7FED0000E046E910E056E5C0E066E63
:10128400810E076E3CC000F03DC001F03EC002F08C
:101294003FC003F033DC00C03CF001C03DF002C0AD
:1012A4003EF003C03FF0500E246E730E256E690E9F
:1012B400266EF9D0660E046EA60E056E4A0E066EF4
:1012C400850E076E3CC000F03DC001F03EC002F048
:1012D4003FC003F013DC00C03CF001C03DF002C08D
:1012E4003EF003C03FF0410E246E740E256E6D0E69
:1012F400266ED9D0CD0E046ECC0E056E4C0E066E45
:101304007B0E076E3CC000F03DC001F03EC002F011
:101314003FC003F080EC05F000C03CF001C03DF09C
:1013240002C03EF003C03FF06D0E246E420E256EE7
:10133400610E266E720E276EB6D08D0E046E7A0E76
:10134400056E080E066E7C0E076E3CC000F03DC0B4
:1013540001F03EC002F03FC003F080EC05F000C095
:101364003CF001C03DF002C03EF003C03FF06D0E02
:10137400246E6D0E256E480E266E670E276E93D072
:101384006F0E046E120E056E030E066E750E076E5A
:101394003CC000F03DC001F03EC002F03FC003F08D
:1013A40080EC05F000C03CF001C03DF002C03EF00E
:1013B40003C03FF04E0E246E2F0E256E6D0E266E6A
:1013C400320E276E70D0F80E046E130E056E440EA6
:1013D400066E850E076E3CC000F03DC001F03EC0B5
:1013E40002F03FC003F080EC05F000C03CF001C007
:1013F4003DF002C03EF003C03FF04B0E246E670E7A
:10140400256E2F0E266E630E276E6D0E286E320E1D
:10141400296E49D0C30E046EF50E056E1C0E066EC1
:10142400820E076E3CC000F03DC001F03EC002F0E9
:101434003FC003F080EC05F000C03CF001C03DF07B
:1014440002C03EF003C03FF06B0E246E700E256E9A
:101454002F0E266E630E276E6D0E286E320E296EC9
:1014640022D06B0E246E500E256E610E266E1BD09C
:101474001950010AD8B4FED61950020AD8B41AD7A2
:101484001950030AD8B436D71950040AD8B455D71A
:101494001950050AD8B474D71950060A94E01950A3
:1014A400070AB8E0DED7010E536E64EC00F03CC0CE
:1014B40041F03DC042F03EC043F03FC044F02D0E29
:1014C400456E000E466E49EC03F0010E416E010EAE
:1014D400426E2D0E436E000E446EE1DD200E4F6E03
:1014E4004DEC01F0240E416E000E426E6AEC05F0E4
:0214F4001200E4
:1014F6009EEC0AF09490829096809384690EC26E58
:10150600C00EC16E12DEF16AF092F088F294F28A91
:101516009E9C9D8CF28CF28E840ED56E0B0ED76E31
:0A152600DC0ED66EC284FFD7FFD79B
:10153C0010EE19F00B0E006E010E016E300EF66EF1
:0E154C00150EF76E000EF86E90EC08F012000F
:0115300000BA
:04153100494E4600D9
:02153500300084
:041537004E614E00B3
:020000040030CA
:0D000100220F0EFF0181FF0FC00FE00F4026
:00000001FF
