:0400000073EF01F0A9
:1000080000C018F001C017F00CC016F00DC015F0B4
:100018000C0E326E48D82450000A0AE1010E2B6EED
:10002800010E2C6E190E2D6E000E2E6E1BD9232A72
:10003800010E2414016E0150010A15E123C02BF0B2
:10004800250E2C6E000E2D6E81D8010E2B6E070E1C
:100058002C6E250E2D6E000E2E6E04D9232A2350E9
:10006800630AD8B4236A242A81CF2AF0F29018C0F0
:1000780000F017C001F016C00CF015C00DF011000B
:0600880000000000120060
:10008E000F0E0C6E470E0D6E0D2EFED70C2EFCD7DE
:06009E000000000012004A
:0A00A400210E0D6E0D2EFED7120086
:1000AE0032BE02D0839E01D0838E32BC02D0839C9E
:1000BE0001D0838C32BA02D0839A01D0838A32B8AF
:1000CE0002D0839801D0838829B002D0838401D0D6
:1000DE0083948386D2DF839632B602D0839E01D07C
:1000EE00838E32B402D0839C01D0838C32B202D084
:1000FE00839A01D0838A32B002D0839801D083884C
:10010E0029B002D0838401D083948386B6DF839690
:0C011E0029A002D0B5DF01D0BEDF120026
:0C012A00299031C032F0BEDF29801200A5
:10013600086A080E0C6E003408360450085ED8B003
:0E01460002D00826D89000360C2EF5D71200F5
:100154002E6A030E2E5C0AE22E502C24E16E000E51
:100164002D20E26E200EE66E2E2AF3D72E502C247C
:10017400E16E000E2D20E26EE66A2E062E502C242F
:100184002F6E000E2D20306E0A0E046E2BC000F070
:10019400D0DF08C000F0300E00262FC0E1FF30C0D1
:1001A400E2FF00C0E6FF0A0E046E2BC000F0C1DFC0
:1001B40000C02BF00050000A01E102D02E06DED769
:0201C400120027
:1001C6000900F5CFE6FF0006FBE10106F9E11200A2
:1001D600959695949598959A959C959E83968394D5
:1001E600839E839C839A83984FDF4EDF4DDF838AFD
:1001F6008388838646DF839647DF838642DF83963E
:1002060043DF83863EDF83963FDF8398838639DF2D
:1002160083963ADF838635DF8396839A838E838639
:1002260030DF839631DF839E838883862ADF839639
:100236008398838626DF839627DF838622DF83964D
:10024600838883861EDF83961FDF8398838619DF64
:100256008396838E838C838A8388838612DF839634
:0602660013DF29801200E5
:10026C000FD0800E2B6E19D0C00E2B6E16D0940EA4
:10027C002B6E13D0D40E2B6E10D0800E2B6E0DD097
:10028C002B50010AEEE02B50020AEEE02B50030A31
:10029C00EEE02B50040AEEE0F0D72C04006E2B504D
:1002AC00002600C02BF000C032F0FBDE29902F6A34
:1002BC002F502D24E96E000E2E20EA6EEE520BE02C
:1002CC002F502D24E96E000E2E20EA6EEECF31F069
:0A02DC0026DF2F2AEDD7298012003B
:1002E600540E196E750E1A6E720E1B6E6E0E1C6E05
:1002F6006F0E1D6E3A0E1E6E200E1F6E200E206EA5
:10030600300E216E226A236A246A100E936E816A69
:10031600F19E81CF2AF0F290F286F28E59DFF280BA
:04032600FFD7FFD727
:020000040030CA
:0D000100220F0EFF0181FF0FC00FE00F4026
:00000001FF
