:100000002FEF00F00000000000EF00F00000000003
:0A0010000000000000000000F3D71C
:10001C001FC0C9FFC7B002D00000FCD7C9CF00F089
:02002C001200C0
:10002E00FF0E156EFF0E166EFF0E176EFF0E186E7C
:10003E001C0E196E000E1A6E1F0E1B6E000E1C6E1D
:10004E00949A94969488C66A400EC76EC68A120019
:10005E00946A82803F0E1D6EFF0E1E6EE1DF82904F
:10006E001DC01FF0D4DF1EC01FF0D1DF8280FFD76E
:02007E00FFD7AA
:020000040030CA
:0D000100220F0EFF0181FF0FC00FE00F4026
:00000001FF
