:04000000AEEF05F06A
:1000080000C018F00BC017F00CC016F00DC015F0AA
:10001800F2A407D08170480ED76EE50ED66EC28264
:10002800F2949EAC96D0C4CF01F0006AC35000266B
:10003800000E0122A8EC04F000C01DF001C01EF063
:1000480002C01FF003C020F0000E046E000E056E03
:10005800200E066E810E076EE7DB000E046E000EA2
:10006800056E000E066E890E076EEAEC04F000C0FD
:1000780019F001C01AF002C01BF003C01CF0000EFA
:10008800046E000E056E480E066E850E076ECCDBFC
:10009800000E046E000E056E480E066E840E076E86
:1000A800E7EC04F000C023F001C024F002C025F002
:1000B80003C026F0230E216E000E226E21C0E9FF38
:1000C80022C0EAFFEECF37F0A7EC05F01A0E0C6E4F
:1000D800F80E0D6E0D2EFED70C2EFCD70000010E6B
:1000E8002124E96E000E2220EA6EEECF37F0A7EC4D
:1000F80005F01A0E0C6EF80E0D6E0D2EFED70C2E96
:10010800FCD70000020E2124E96E000E2220EA6EC0
:10011800EECF37F0A7EC05F01A0E0C6EF80E0D6E48
:100128000D2EFED70C2EFCD70000030E2124E96EFD
:10013800000E2220EA6EEECF37F0A7EC05F01A0E7B
:100148000C6EF80E0D6E0D2EFED70C2EFCD700008F
:100158009E9C18C000F017C00BF016C00CF015C01C
:040168000DF0110085
:08016C000AAE029E000E120013
:100174000B840BAEC5EF00F0010E036E026A016A38
:0A018400006A0A360232FF0E120074
:10018E000B820BAED1EF00F00368026801680068C5
:08019E000A360232FF0E1200C6
:0E01A600026A016A006A086A036A000E12000B
:1001B4000CB01CEF01F00CA2C2EF01F00E6A000EAD
:1001C400026433EF01F0F00E0214D8A4FEEF00F045
:1001D400023A01380F0B02260138F00B016E003889
:1001E4000F0B01260038F00B006E08380F0B0026A9
:1001F4000838F00B086E0E84D89002BE17EF01F099
:1002040008360036013602360E2A02BE17EF01F018
:1002140008360036013602360E2A02BE17EF01F008
:1002240008360036013602360E2A0E500364B8EF43
:1002340001F0035E0BBC08AEBDEF01F0D880800E68
:1002440008640030000E002201220222D8A0BDEF73
:1002540001F0023201320032034AC2EF01F0BDEF75
:1002640001F001C002F000C001F008C000F0086A0B
:10027400000E0E8602646AEF01F0F00E0214D8A498
:1002840052EF01F0023A01380F0B02260138F00B4D
:10029400016E00380F0B01260038F00B006E0E843F
:1002A400D89002BE17EF01F00036013602360E2A4E
:1002B40002BE17EF01F00036013602360E2A02BEE6
:1002C40017EF01F00036013602360E2A17EF01F05F
:1002D40001C002F000C001F0006A000E0E960E8804
:1002E400026497EF01F0F00E0214D8A482EF01F03B
:1002F400023A01380F0B02260138F00B016E0E840E
:10030400D89002BE17EF01F0013602360E2A02BE63
:1003140017EF01F0013602360E2A02BE17EF01F084
:10032400013602360E2A17EF01F001C002F0016A0D
:10033400000E0E860264C7EF01F0F00E0214D8A47A
:10034400A6EF01F0023A0E84D89002BE17EF01F036
:1003540002360E2A02BE17EF01F002360E2A02BE42
:1003640017EF01F002360E2A17EF01F0010E0C6EA2
:10037400FFDECAEF01F0020E0C6EF6DECAEF01F0EA
:10038400040E0C6E02DFCAEF01F0080E0C6E09DFDA
:02039400120055
:080396000B6A0B86FF0E12003A
:10039E00025006180E6E086A096A0B6A035007644B
:1003AE00C2EF02F006500A6E068E028E03500B6EDE
:1003BE000750036E000E0B6412EF02F00B50075E37
:1003CE00D8B4B3EF02F0070E076481EF02F0075EB8
:1003DE0000C008F001C000F002C001F0026A074E32
:1003EE00B3EF02F0076456EF02F0075E00C008F0AC
:1003FE0001C000F0016A074EB3EF02F0076434EF5C
:10040E0002F0075E00C008F0006A074EB3EF02F07C
:10041E0007641BEF02F00AC002F005C001F004C031
:10042E0000F0086ADCEF03F0030E076426EF02F01B
:10043E00075E08380F0B086E074EB3EF02F0D89028
:10044E000832074EB3EF02F0D8900832074EB3EFE2
:10045E0002F0D8900832B3EF02F0030E076445EFB6
:10046E0002F0075E08380F0B086E0038F00B0826F6
:10047E0000380F0B006E074EB3EF02F0D89000322B
:10048E000832074EB3EF02F0D89000320832074E12
:10049E00B3EF02F0D89000320832B3EF02F0030E41
:1004AE0007646DEF02F0075E08380F0B086E003818
:1004BE00F00B082600380F0B006E0138F00B0026EB
:1004CE0001380F0B016E074EB3EF02F0D8900132D8
:1004DE0000320832074EB3EF02F0D89001320032EC
:1004EE000832074EB3EF02F0D890013200320832D4
:1004FE00B3EF02F0030E07649EEF02F0075E0838BA
:10050E000F0B086E0038F00B082600380F0B006E2C
:10051E000138F00B002601380F0B016E0238F00B7C
:10052E00012602380F0B026E074EB3EF02F0D89081
:10053E000232013200320832074EB3EF02F0D89089
:10054E000232013200320832074EB3EF02F0D89079
:10055E000232013200320832096A000E0EAEA7EFE7
:10056E0003F0081E001E011E021E082A0022012290
:10057E000222A7EF03F00750D8A4C8EF02F0DCEF79
:10058E0003F0096A02C00AF0028E068E0750035C61
:10059E00076ED8B49AEF03F0070E076468EF03F006
:1005AE00075E0450096E0550046E0650056E066A0D
:1005BE00074E9AEF03F0070E07643DEF03F0075E58
:1005CE000450096E0550046E056A074E9AEF03F04B
:1005DE00070E07641BEF03F0075E0450096E046AF2
:1005EE00074E9AEF03F0070E076402EF03F00AC0FE
:1005FE0002F0DCEF03F0030E07640DEF03F0075E6D
:10060E0009380F0B096E074E9AEF03F0D890093296
:10061E00074E9AEF03F0D8900932074E9AEF03F087
:10062E00D89009329AEF03F0030E07642CEF03F013
:10063E00075E09380F0B096E0438F00B09260438D3
:10064E000F0B046E074E9AEF03F0D8900432093266
:10065E00074E9AEF03F0D89004320932074E9AEF04
:10066E0003F0D890043209329AEF03F0030E0764B8
:10067E0054EF03F0075E09380F0B096E0438F00BC8
:10068E00092604380F0B046E0538F00B04260538C6
:10069E000F0B056E074E9AEF03F0D8900532043219
:1006AE000932074E9AEF03F0D89005320432093220
:1006BE00074E9AEF03F0D8900532043209329AEFC2
:1006CE0003F0030E076485EF03F0075E09380F0B86
:1006DE00096E0438F00B092604380F0B046E05382A
:1006EE00F00B042605380F0B056E0638F00B0526A9
:1006FE0006380F0B066E074E9AEF03F0D8900632AF
:10070E00053204320932074E9AEF03F0D8900632C2
:10071E00053204320932074E9AEF03F0D8900632B2
:10072E00053204320932086A000E0EAEA7EF03F04E
:10073E00091E041E051E061E092A04220522062273
:10074E0009500826045000220550012206500222AC
:10075E000EBEBEEF03F0D8A0CDEF03F00232013291
:10076E0000320832033ECDEF03F0D7EF03F0D8B0DE
:10077E00D2EF03F0000E081E001E011E021E082AF4
:10078E000022012202220A7ED2EF03F0010E0C6E2D
:10079E000ADDDEEF03F0020E0C6E05DDDEEF03F078
:1007AE00040E0C6EEDDCDEEF03F0000E0C6E12008C
:1007BE000C6A0E6A0250D8A4F8EF03F001C002F0E2
:1007CE0000C001F0006A0E860250D8A4F8EF03F0C4
:1007DE0001C002F0016A0E960E880250D8B40AEFDC
:1007EE0004F00E50035ED8A4D8A00FEF04F0D890FA
:1007FE0002BE14EF04F0003601360236032EFFEF70
:10080E0003F00FEF04F0010E0C6EC6DC17EF04F0D0
:10081E00020E0C6EA8DC17EF04F0040E0C6E9FDCBB
:02082E001200B6
:10083000086A096A000E076203649DEF04F0025023
:1008400006180A6E075003267E0ED8A02EEF04F07D
:10085000035ED8B0A1EF04F032EF04F0035ED8A03D
:10086000A5EF04F0028E068E02C00EF001C00BF060
:1008700000C00DF000500402F4CF0CF0015005024E
:10088000F4CF00F0F3CF08F00402F3500C26F4503C
:100890000822000E00220D500502F3500C26F450E1
:1008A0000822000E002202500402F3500826F450E1
:1008B000002202500502016A000E0122F3500026B8
:1008C000F45001220D500602F3500826F450002285
:1008D000026A000E012202220B500602F35000268B
:1008E000F4500122000E02220E500602F35001269F
:1008F000F450022202BE85EF04F0083600360136BD
:1009000002360306D8B4A5EF04F098EF04F0D880BF
:10091000800E08640030000E002201220222D8A0BE
:1009200098EF04F0023201320032034AA1EF04F0E2
:100930000AAE029E000EA7EF04F0010E34DCA7EF12
:1009400004F0020E24DCA7EF04F0040E13DC120006
:100950000050086E0150006E016A026A036A0B6A59
:100960000C6A960E036E0A6A00C001F008C000F01F
:08097000086A026A24DF12008C
:100978004E0E2B6E0B0E2C6E370E2D6E000E2E6E3D
:10098800FF0E276EFF0E286E000E296E000E2A6ECF
:10099800FF0E336EFF0E346E000E356E000E366E8F
:1009A800FF0E2F6EFF0E306E000E316E000E326E8F
:1009B800AC8A900EAB6E948E949C9EAA03D0AECF58
:0609C80000F0FBD7120055
:0609CE00067EE6DC1200CB
:1009D4000450000A12E10550000A0FE10650000A13
:1009E4000CE10750000A09E1FF0E006EFF0E016ED4
:1009F4007F0E026EFF0E036EA7D0086A096A0750C5
:100A0400D8B495EF05F00350D8B499EF05F002502F
:100A140006180A6E028E068E0E6A02C008F001C025
:100A24000CF000C00DF004500D5E0550D8A0053C3C
:100A34000C5E0650D8A0063C085E086A0C6A0D6A73
:100A4400D8A02CEF05F0D8900232013200320832DF
:100A5400010E0E6E0750035ED8A039EF05F07E0E2E
:100A64000E240326D8B09EEF05F03FEF05F07E0E6E
:100A74000E240326D8A0A3EF05F0180E0B6E0D3636
:100A84000C3608360036013602360E360450005E47
:100A94000550D8A0053C015E0650D8A0063C025E75
:100AA40006340E120EA05AEF05F00D8065EF05F026
:100AB400045000260550D8B0053C01260650D8B095
:100AC400062802260D900B2E41EF05F08BEF05F062
:100AD400D8900036013602360E360450005E0550BA
:100AE400D8A0053C015E0650D8A0063C025E063440
:100AF4000E10010B0D26D8B00C2AD8B4082AD8A49D
:100B04008BEF05F008320C320D32032AD8B49EEF75
:100B140005F00AAE089E0850026E0C50016E0D508E
:100B2400006EA6EF05F0010E34DCA6EF05F0020E10
:100B3400D3EC00F0A6EF05F0040EC7EC00F0A6EF2E
:0A0B440005F0080EBAEC00F01200F4
:0E0B4E00ACB202D00000FCD737C0ADFF1200E1
:100B5C00C16A030EC26E8D0EC06E936A850ED56E81
:100B6C00480ED76EE50ED66EB886B06ACF0EAF6E55
:100B7C00AC84FCDE040E0B6E0C0E0C6E330E0D6E84
:100B8C000D2EFED70C2EFCD70B2EFAD70000000032
:100B9C00F294F28A9E9C9D8CF28CF28EC2820000A2
:040BAC00FED7FFD79A
:020000040030CA
:0E000000000C1F1EFF8381FF0FC00FE00F409A
:00000001FF
