:0400000045EF00F0D8
:10000800F2A204D0100E1D26000E1E22F0A004D06D
:0E001800100E1D5E000E1E5AF292F0901100A6
:100026001FC0C9FFC7B002D00000FCD7C9CF00F07F
:020036001200B6
:1000380082901EC000F0016A00C01FF0F0DF1DC0F2
:100048001FF0EDDF060E0D6E0D2EFED7000082802C
:02005800120094
:10005A00FF0E156EFF0E166EFF0E176EFF0E186E50
:10006A00260E196E000E1A6E1F0E1B6E000E1C6EE7
:10007A00949A94969488C66A400EC76EC68A1200ED
:10008A00870EC16E946A938093828280FF0E1D6EE2
:10009A003F0E1E6EF16AF292F288F090F086F28EAE
:0800AA00D7DFC5DFFED7FFD749
:020000040030CA
:0D000100220F0EFF0181FF0FC00FE00F4026
:00000001FF
