:04000000B1EF00F06C
:1000080000C019F001C018F00BC017F00CC016F0B2
:100018000DC015F0010E1B6E030E1C6E020E1D6E38
:10002800060E1E6E040E1F6E0C0E206E080E216E3C
:10003800090E226E236A1A50000A3FE1040E016E6F
:10004800090E015C1FE2070E0114006E00C023F0C8
:100058001B0EE96E000EEA6E0050E926D8B0EA2AB7
:10006800EECF82FF030E0B6E080E0C6E770E0D6E30
:100078000D2EFED70C2EFCD70B2EFAD7826A020E55
:100088000126DED7232A1B0EE96E000EEA6E2350E6
:10009800E926D8B0EA2AEECF82FF030E0B6E080ECF
:1000A8000C6E770E0D6E0D2EFED70C2EFCD70B2E78
:1000B800FAD7826A010E1A6E3CD0100E016E0150FA
:1000C80000081FE2070E0114006E00C023F01B0E8B
:1000D800E96E000EEA6E0050E926D8B0EA2AEECFA3
:1000E80082FF030E0B6E080E0C6E770E0D6E0D2E32
:1000F800FED70C2EFCD70B2EFAD7826A020E015EB1
:10010800DED723061B0EE96E000EEA6E2350E926A1
:10011800D8B0EA2AEECF82FF030E0B6E080E0C6EE3
:10012800770E0D6E0D2EFED70C2EFCD70B2EFAD7A0
:10013800826AF29219C000F018C001F017C00BF0E3
:0A01480016C00CF015C00DF01100F8
:100152000900F5CFE6FF0006FBE10106F9E1120016
:100162001A6A9380946A826AF19EF19CF292F288F2
:10017200F28E8280030E0B6E080E0C6E770E0D6EE1
:100182000D2EFED70C2EFCD70B2EFAD78290828230
:10019200030E0B6E080E0C6E770E0D6E0D2EFED733
:1001A2000C2EFCD70B2EFAD78284030E0B6E080E90
:1001B2000C6E770E0D6E0D2EFED70C2EFCD70B2E6D
:0A01C200FAD782928294FFD7FFD78C
:020000040030CA
:0D000100220F0EFF0181FF0FC00FE00F4026
:00000001FF
