:0400000058EF00F0C5
:1000080000C015F09EA03BD03C0ECF6EB00ECE6E59
:100018009E90000E81B0010E1A6E000E81B2010E84
:10002800186E000E81B4010E176E1650000A06E114
:100038001750010A03E12DD8010E166E1650010A59
:1000480006E11850010A03E11ED8020E166E16507A
:10005800020A0DE11950000A02E1D58E192AF2B4FC
:10006800D59E1750000A03E111D8030E166E1650DC
:10007800030A05E11A50010A02E105D8166AF2944A
:0600880015C000F011009C
:06008E0082908292120034
:060094008292828012003E
:06009A0082908282120038
:1000A0000900F5CFE6FF0006FBE10106F9E11200C9
:1000B000166A176A186A196A1A6A94909492938059
:1000C0009382938482908292F294F28A070ED56E84
:1000D000670ED76E6A0ED66EA50ECD6E3C0ECF6E35
:1000E000B00ECE6E9E909D80F28CF28E0000FED7F8
:0200F000FFD738
:020000040030CA
:0D000100220F0EFF0181FF0FC00FE00F4026
:00000001FF
