:040000008AEF00F093
:1000080000C015F09EA06DD03C0ECF6EB00ECE6E27
:100018009E90000E81B0010E186E000E81B2010E86
:10002800196E000E81B4010E166E1750000A06E113
:100038001650010A03E1010E176E5DD81750010A28
:1000480006E11950010A03E1020E176E4ED8175047
:10005800020A0DE11650000A0AE1030E176E060E99
:10006800D56E0B0ED76EDC0ED66ED58E83701750FC
:10007800030A0EE1F2A40CD0D59EF29483701650B8
:10008800010A03E1020E176E03D0040E176E30D872
:100098001750040A14E11850010A03E126D8176A18
:1000A8000ED01650010A0BE1050E176E1ED8050E6C
:1000B800D56E0B0ED76EDC0ED66ED58E83701750AC
:1000C800050A0FE1F2A40DD0D59EF2948370165064
:1000D800010A04E1010E176E0ED803D0040E176E44
:0A00E80007D8F29415C000F01100D3
:0600F200829082921200D0
:0600F800829282801200DA
:0600FE00829082821200D4
:100104000900F5CFE6FF0006FBE10106F9E1120064
:10011400166A176A186A196A949094929380938263
:1001240093849590829082928390F294F29AA50E91
:10013400CD6E3C0ECF6EB00ECE6E9E909D80F28C36
:08014400F28E0000FED7FFD788
:020000040030CA
:0D000100220F0EFF0181FF0FC00FE00F4026
:00000001FF
