:04000000C2EF08F053
:1000080000C018F001C017F00CC016F00DC015F0B4
:100018009EAC0BD0256A266AC4CF26F0256AC35049
:100028002526000E262238EC08F0F2A406D08270AD
:10003800480ED76EE50ED66EC284F2A20DD0192AEC
:10004800030E046E19C000F029EC08F008C000F097
:1000580000C019F038EC08F09E9CF294F29218C097
:1000680000F017C001F016C00CF015C00DF011001B
:100078000F0E0C6E470E0D6E0D2EFED70C2EFCD7F4
:0600880000000000120060
:06008E000000000012005A
:0A009400210E0D6E0D2EFED7120096
:0E009E00026A016A006A086A036A000E120014
:1000AC000B820BAE60EF00F0036802680168006819
:0800BC000A360232FF0E1200A9
:1000C4000B840BAE6DEF00F0010E036E026A016A41
:0A00D400006A0A360232FF0E120025
:0800DE000AAE029E000E1200A2
:1000E6004CBE02D0839E01D0838E4CBC02D0839C32
:1000F60001D0838C4CBA02D0839A01D0838A4CB843
:1001060002D0839801D0838835B002D0838401D091
:1001160083948386B9DF83964CB602D0839E01D042
:10012600838E4CB402D0839C01D0838C4CB202D017
:10013600839A01D0838A4CB002D0839801D08388F9
:1001460035B002D0838401D0839483869DDF839665
:0C01560035A002D08EDF01D09ADF12002D
:0C016200359048C04CF0BEDF3580120024
:10016E0048C004F049C005F004C002F005C003F019
:10017E00044A052A4AC000F04BC001F04A4A4B2AF5
:10018E0000C0E9FF01C0EAFF02C0E1FF03C0E2FFC9
:10019E00EECFE6FF02C0E9FF03C0EAFFEE5201E038
:0C01AE00E3D748C000F049C001F0120087
:1001BA00086A096A000E0762036462EF01F00250DE
:1001CA0006180A6E075003267E0ED8A0F3EF00F039
:1001DA00035ED8B066EF01F0F7EF00F0035ED8A037
:1001EA006AEF01F0028E068E02C00EF001C00BF01B
:1001FA0000C00DF000500402F4CF0CF001500502CB
:10020A00F4CF00F0F3CF08F00402F3500C26F450B8
:10021A000822000E00220D500502F3500C26F4505D
:10022A000822000E002202500402F3500826F4505D
:10023A00002202500502016A000E0122F350002634
:10024A00F45001220D500602F3500826F450002201
:10025A00026A000E012202220B500602F350002607
:10026A00F4500122000E02220E500602F35001261B
:10027A00F450022202BE4AEF01F008360036013677
:10028A0002360306D8B46AEF01F05DEF01F0D880B8
:10029A00800E08640030000E002201220222D8A03B
:1002AA005DEF01F0023201320032034A66EF01F0DB
:1002BA000AAE029E000E6CEF01F0010EEBDE6CEF4F
:1002CA0001F0020EEEDE6CEF01F0040EF6DE120013
:1002DA000D6A086A0050D8B4000C04180A6E0ABEE7
:1002EA000D1E0B6A04AE02D0041E042A00AE02D010
:1002FA00001E002A005004100A6E0ABE1FD00450C5
:10030A00085E003600340836045008260036060E09
:10031A000C6E00340836045000B0085E00A00826AF
:10032A0000360C2EF6D700A008260BB015D00DAE5D
:10033A00000C001E002A081E082A000C04AE09D070
:10034A0000BE04D00050086E006AF1D7006A002A85
:10035A00000C001E0B2AD3D7082A0450085CD8A424
:0E036A00E6D7086A002A00AEE2D7FF0C1200A8
:100378000A6A0350D8A40A800750D8A40A820A50EF
:10038800D8B41FEF02F0030AD8B4D8EF01F00AB0CE
:10039800D3EF01F006AE1DEF02F01BEF02F002AE44
:1003A8001BEF02F01DEF02F00250800B0A6E029E56
:1003B8000650800B069E0A18D8B4E9EF01F00A50DF
:1003C800D8B41BEF02F01DEF02F00750035CD8B45D
:1003D800F3EF01F0D8A00FEF02F015EF02F006508E
:1003E800025CD8B4FDEF01F0D8A00FEF02F015EFD2
:1003F80002F00550015CD8B407EF02F0D8A00FEF67
:1004080002F015EF02F00450005CD8B41FEF02F0C0
:10041800D8B015EF02F00A52D8B41DEF02F01BEF66
:1004280002F00A52D8B41BEF02F01DEF02F0D88098
:0E0438001200D8901200D880D8841200120052
:100446000C6A0E6A0250D8A43CEF02F001C002F01A
:1004560000C001F0006A0E860250D8A43CEF02F0FC
:1004660001C002F0016A0E960E880250D8B44EEF13
:1004760002F00E50035ED8A4D8A053EF02F0D89035
:1004860002BE58EF02F0003601360236032E43EF65
:1004960002F053EF02F0010E0C6EFEDD5BEF02F090
:1004A600020E0C6E0CDE5BEF02F0040E0C6E14DE18
:0204B600120032
:1004B8000CB09EEF02F00CA244EF03F00E6A000E9F
:1004C8000264B5EF02F0F00E0214D8A480EF02F037
:1004D800023A01380F0B02260138F00B016E003882
:1004E8000F0B01260038F00B006E08380F0B0026A2
:1004F8000838F00B086E0E84D89002BE99EF02F00F
:1005080008360036013602360E2A02BE99EF02F08E
:1005180008360036013602360E2A02BE99EF02F07E
:1005280008360036013602360E2A0E5003643AEFBA
:1005380003F0035E0BBC08AE3FEF03F0D880800EDB
:1005480008640030000E002201220222D8A03FEFEA
:1005580003F0023201320032034A44EF03F03FEF66
:1005680003F001C002F000C001F008C000F0086A02
:10057800000E0E860264ECEF02F0F00E0214D8A40E
:10058800D4EF02F0023A01380F0B02260138F00BC3
:10059800016E00380F0B01260038F00B006E0E8438
:1005A800D89002BE99EF02F00036013602360E2AC4
:1005B80002BE99EF02F00036013602360E2A02BE5C
:1005C80099EF02F00036013602360E2A99EF02F052
:1005D80001C002F000C001F0006A000E0E960E88FD
:1005E800026419EF03F0F00E0214D8A404EF03F02C
:1005F800023A01380F0B02260138F00B016E0E8407
:10060800D89002BE99EF02F0013602360E2A02BED9
:1006180099EF02F0013602360E2A02BE99EF02F077
:10062800013602360E2A99EF02F001C002F0016A83
:10063800000E0E86026449EF03F0F00E0214D8A4EF
:1006480028EF03F0023A0E84D89002BE99EF02F028
:1006580002360E2A02BE99EF02F002360E2A02BEB8
:1006680099EF02F002360E2A99EF02F0010E0C6E95
:1006780025DD4CEF03F0020E0C6E2DDD4CEF03F080
:10068800040E0C6E0FDD4CEF03F0080E0C6E03DD4C
:0206980012004E
:10069A000050086E0150006E016A026A036A0B6A12
:1006AA000C6A960E036E0A6A00C001F008C000F0D8
:0806BA00086A026AC3DE1200A7
:1006C2000FD0800E3A6E19D0C00E3A6E16D0940E2C
:1006D2003A6E13D0D40E3A6E10D0800E3A6E0DD010
:1006E2003A50010AEEE03A50020AEEE03A50030AAA
:1006F200EEE03A50040AEEE0F0D73B04006E3A50C6
:10070200002600C03AF000C04CF0ECDC35903E6AA6
:100712003E503C24E96E000E3D20EA6EEE520BE0A4
:100722003E503C24E96E000E3D20EA6EEECF48F0CA
:0A07320017DD3E2AEDD735801200D6
:10073C00466A476A3AC042F03BC043F03CC044F0C2
:10074C003DC045F04550FF0A08E14450FF0A05E161
:10075C004350FF0A02E14250FF0A0CE13EC048F050
:10076C003FC049F0210E4A6E000E4B6EFADC030EB0
:10077C00006EEBD1010E406E44AE0ED0800E4418CC
:10078C00006E00C044F0402A3EC0E1FF3FC0E2FFD3
:10079C002D0EE66E3E4A3F2A000E006E451808E10B
:1007AC000050441805E10050431802E14250000A81
:1007BC000BE13EC048F03FC049F01F0E4A6E000EE0
:1007CC004B6ECFDC006AC1D14550FF0A08E14450A2
:1007DC00000A05E14350000A02E14250000A0CE114
:1007EC003EC048F03FC049F01B0E4A6E000E4B6EE7
:1007FC00B8DC40C000F0A9D1000E046E000E056EEE
:10080C00000E066E7F0E076E42C000F043C001F072
:10081C0044C002F045C003F0A9DD010ED8B0000EB3
:10082C00006E00521BE042C000F043C001F044C017
:10083C0002F045C003F0000E046E000E056E200E93
:10084C00066E820E076EB3DC00C042F001C043F0AE
:10085C0002C044F003C045F04706CED7000E046E2C
:10086C00000E056E200E066E820E076E42C000F062
:10087C0043C001F044C002F045C003F077DD000E28
:10088C00D8B0010E006E00521BE042C000F043C015
:10089C0001F044C002F045C003F0CD0E046ECC0E46
:1008AC00056E4C0E066E7B0E076E81DC00C042F0AE
:1008BC0001C043F002C044F003C045F0472ACED734
:1008CC00FF0E4214086EFF0E4314096E7F0E441483
:1008DC000A6E000E45140B6E08C004F009C005F03A
:1008EC000AC006F00BC007F0043604900536063635
:1008FC000736000E4214006E000E4314016E000EFB
:10090C004414026EFF0E4514036E00C042F001C089
:10091C0043F002C044F003C045F004504210006E96
:10092C0005504310016E06504410026E07504510DE
:10093C00036E00C042F001C043F002C044F003C09B
:10094C0045F07F0E455C006E00C041F0010E456E17
:10095C0000C004F042C000F043C001F044C002F0FB
:10096C0045C003F0045007E0003600900136023613
:10097C000336FF0FF8D700C042F001C043F002C0AD
:10098C0044F003C045F03EC0E1FF3FC0E2FF4550DC
:10099C00300FE66E3E4A3F2A800E4718006E800EDE
:1009AC00010A005C08E3800E060A006E800E4718F0
:1009BC00005C01E30AD03EC0E1FF3FC0E2FF2E0E17
:1009CC00E66E3E4A3F2A010E466E060E416E4150BF
:1009DC00000A54E0456A42C000F043C001F044C034
:1009EC0002F045C003F000360090013602360336A3
:1009FC000036009001360236033642500026435032
:100A0C000122445002224550032200C042F001C092
:100A1C0043F002C044F003C045F042C000F043C0B4
:100A2C0001F044C002F045C003F0003600900136DE
:100A3C000236033600C042F001C043F002C044F05D
:100A4C0003C045F03EC0E1FF3FC0E2FF4550300F10
:100A5C00E66E3E4A3F2A4650000A0EE147064750D2
:100A6C00000A0AE13EC0E1FF3FC0E2FF2E0EE66E37
:100A7C003E4A3F2A010E466E4106A9D7FF0E3E2480
:100A8C00E96EFF0E3F20EA6EEE50300A05E1010ED2
:100A9C003E5E000E3F5AF2D7FF0E3E24E96EFF0E6B
:100AAC003F20EA6EEE502E0A04E1010E3E5E000E6F
:100ABC003F5A4750000A43E03EC0E1FF3FC0E2FF0F
:100ACC00650EE66E3E4A3F2A800E4718006E800E79
:100ADC00000A005C0BE23EC0E1FF3FC0E2FF2D0EBE
:100AEC00E66E3E4A3F2A47500008476E47C041F029
:100AFC00800E090A006E800E4718005C0FE20A0E89
:100B0C00046E41C000F06DEC01F03EC0E1FF3FC04F
:100B1C00E2FF0050300FE66E3E4A3F2A0A0E046E8A
:100B2C0041C000F06DEC01F008C000F03EC0E1FFE8
:100B3C003FC0E2FF0050300FE66E3E4A3F2A3EC0F7
:0C0B4C00E1FF3FC0E2FFE66A006A120011
:100B5800025006180E6E086A096A0B6A0350076489
:100B68009FEF06F006500A6E068E028E03500B6E3B
:100B78000750036E000E0B64EFEF05F00B50075E95
:100B8800D8B490EF06F0070E07645EEF06F0075E34
:100B980000C008F001C000F002C001F0026A074E70
:100BA80090EF06F0076433EF06F0075E00C008F028
:100BB80001C000F0016A074E90EF06F0076411EFDC
:100BC80006F0075E00C008F0006A074E90EF06F0D6
:100BD8000764F8EF05F00AC002F005C001F004C090
:100BE80000F0086ABCEF07F0030E076403EF06F095
:100BF800075E08380F0B086E074E90EF06F0D89086
:100C08000832074E90EF06F0D8900832074E90EF62
:100C180006F0D890083290EF06F0030E076422EF32
:100C280006F0075E08380F0B086E0038F00B082630
:100C380000380F0B006E074E90EF06F0D890003288
:100C48000832074E90EF06F0D89000320832074E6F
:100C580090EF06F0D8900032083290EF06F0030EBD
:100C680007644AEF06F0075E08380F0B086E003875
:100C7800F00B082600380F0B006E0138F00B002629
:100C880001380F0B016E074E90EF06F0D890013235
:100C980000320832074E90EF06F0D8900132003249
:100CA8000832074E90EF06F0D89001320032083231
:100CB80090EF06F0030E07647BEF06F0075E083836
:100CC8000F0B086E0038F00B082600380F0B006E6B
:100CD8000138F00B002601380F0B016E0238F00BBB
:100CE800012602380F0B026E074E90EF06F0D890DF
:100CF8000232013200320832074E90EF06F0D890E7
:100D08000232013200320832074E90EF06F0D890D6
:100D18000232013200320832096A000E0EAE84EF48
:100D280007F0081E001E011E021E082A00220122CA
:100D3800022284EF07F00750D8A4A5EF06F0BCEF15
:100D480007F0096A02C00AF0028E068E0750035C9B
:100D5800076ED8B477EF07F0070E076445EF07F082
:100D6800075E0450096E0550046E0650056E066A4B
:100D7800074E77EF07F0070E07641AEF07F0075ED4
:100D88000450096E0550046E056A074E77EF07F0A8
:100D9800070E0764F8EF06F0075E0450096E046A50
:100DA800074E77EF07F0070E0764DFEF06F00AC07B
:100DB80002F0BCEF07F0030E0764EAEF06F0075EE7
:100DC80009380F0B096E074E77EF07F0D8900932F4
:100DD800074E77EF07F0D8900932074E77EF07F004
:100DE800D890093277EF07F0030E076409EF07F090
:100DF800075E09380F0B096E0438F00B0926043812
:100E08000F0B046E074E77EF07F0D89004320932C3
:100E1800074E77EF07F0D89004320932074E77EF84
:100E280007F0D8900432093277EF07F0030E076411
:100E380031EF07F0075E09380F0B096E0438F00B25
:100E4800092604380F0B046E0538F00B0426053804
:100E58000F0B056E074E77EF07F0D8900532043276
:100E68000932074E77EF07F0D8900532043209327D
:100E7800074E77EF07F0D89005320432093277EF42
:100E880007F0030E076462EF07F0075E09380F0BDF
:100E9800096E0438F00B092604380F0B046E053868
:100EA800F00B042605380F0B056E0638F00B0526E7
:100EB80006380F0B066E074E77EF07F0D89006320C
:100EC800053204320932074E77EF07F0D890063220
:100ED800053204320932074E77EF07F0D890063210
:100EE800053204320932086A000E0EAE84EF07F0AC
:100EF800091E041E051E061E092A042205220622B2
:100F080009500826045000220550012206500222EA
:100F18000EBE9BEF07F0D8A0AAEF07F0023201320D
:100F280000320832033EAAEF07F0B6EF07F0D8B058
:100F3800B0EF07F0000E081E001E011E021E082A50
:100F48000022012202220A7EB0EF07F0010E0C6E89
:100F58005CEC02F0BEEF07F0020E0C6E5CEC02F0E7
:100F6800BEEF07F0040E0C6E56EC00F0BEEF07F073
:060F7800000E0C6E1200D9
:100F7E00959695949598959A959C959E839683941F
:100F8E00839E839C839A83983CEC00F03CEC00F0AB
:100F9E003CEC00F0838A8388838647EC00F08396CE
:100FAE003CEC00F0838647EC00F083963CEC00F0BE
:100FBE00838647EC00F083963CEC00F083988386A2
:100FCE0047EC00F083963CEC00F0838647EC00F093
:100FDE008396839A838E838647EC00F083963CEC4F
:100FEE0000F0839E8388838647EC00F08396839877
:100FFE00838647EC00F083963CEC00F0838647EC4A
:10100E0000F083968388838647EC00F083963CEC51
:10101E0000F08398838647EC00F08396838E838C52
:10102E00838A8388838647EC00F083963CEC00F03D
:04103E0035801200E7
:101042000900F5CFE6FF0006FBE10106F9E1120017
:10105200086A080E0C6E003408360450085ED8B0D8
:0E10620002D00826D89000360C2EF5D71200CA
:1010700025C000F026C001F04DEC03F0000E046E18
:10108000000E056E7A0E066E7D0E076EDDEC00F02A
:1010900000C036F001C037F002C038F003C039F0AC
:1010A000430E1A6E1950010A26E136C000F037C00F
:1010B00001F038C002F039C003F0660E046E660E0F
:1010C000056E660E066E7F0E076EDDEC00F0000EFC
:1010D000046E000E056E000E066E840E076E3CDD7B
:1010E00000C036F001C037F002C038F003C039F05C
:1010F000460E1A6E1ED01950020A1BE136C000F0CF
:1011000037C001F038C002F039C003F0330E046E6E
:10111000930E056E080E066E870E076E1DDD00C06D
:1011200036F001C037F002C038F003C039F04B0E82
:101130001A6E010E4C6E73EC00F036C03AF037C0F8
:101140003BF038C03CF039C03DF0270E3E6E000E3B
:101150003F6E9EEC03F0010E3A6E010E3B6E270EC1
:101160003C6E000E3D6E61EC03F0200E486EB1EC5B
:1011700000F0DF0E486EB1EC00F01AC048F0B1ECA0
:0411800000F0120069
:10118400E5EC08F09490829096829380710EC26E82
:10119400C00EC16EF2DEF16AF292F288F294F28A23
:1011A4009E9C9D8CF28CF28E850ED56E480ED76E69
:0A11B400E50ED66EC284FFD7FFD708
:1011CA0010EE19F00C0E006E010E016EBE0EF66ED8
:0E11DA00110EF76E000EF86E21EC08F01200F8
:0111BE000030
:0111BF00002F
:0411C000494E46004E
:0211C4003000F9
:0411C6004E614E0028
:020000040030CA
:0D000100220F0EFF0181FF0FC00FE00F4026
:00000001FF
