:040000002DEF05F0EB
:1000080000C018F001C017F00CC016F00DC015F0B4
:100018009E9C236A246AC4CF01F0006AC35000265C
:10002800000E012200C023F001C024F0B5DA000E52
:10003800046E000E056E200E066E770E076E15D93B
:1000480000C02CF001C02DF002C02EF003C02FF02C
:10005800010E426E5ED82CC030F02DC031F02EC09B
:1000680032F02FC033F0250E346E000E356EE5DA0F
:10007800010E306E010E316E250E326E000E336E9B
:100088009FDA0B0E0B6E260E0C6E5D0E0D6E0D2E8E
:10009800FED70C2EFCD70B2EFAD700000000C28426
:1000A80018C000F017C001F016C00CF015C00DF014
:0200B800110035
:1000BA000F0E0C6E470E0D6E0D2EFED70C2EFCD7B2
:0600CA000000000012001E
:0600D00000000000120018
:0A00D600210E0D6E0D2EFED7120054
:1000E0000B820BAE7AEF00F00368026801680068CB
:0800F0000A360232FF0E120075
:1000F8000B840BAE87EF00F0010E036E026A016AF3
:0A010800006A0A360232FF0E1200F0
:080112000AAE029E000E12006D
:10011A0042BE02D0839E01D0838E42BC02D0839C11
:10012A0001D0838C42BA02D0839A01D0838A42B822
:10013A0002D0839801D083882BB002D0838401D067
:10014A0083948386C0DF839642B602D0839E01D011
:10015A00838E42B402D0839C01D0838C42B202D0F7
:10016A00839A01D0838A42B002D0839801D08388CF
:10017A002BB002D0838401D083948386A4DF839634
:0C018A002BA002D095DF01D0A1DF1200F5
:0E019600026A016A006A086A036A000E12001B
:1001A4000A6A0350D8A40A800750D8A40A820A50C5
:1001B400D8B435EF01F0030AD8B4EEEF00F00AB07A
:1001C400E9EF00F006AE33EF01F031EF01F002AEDB
:1001D40031EF01F033EF01F00250800B0A6E029E02
:1001E4000650800B069E0A18D8B4FFEF00F00A50A0
:1001F400D8B431EF01F033EF01F00750035CD8B409
:1002040009EF01F0D8A025EF01F02BEF01F0065023
:10021400025CD8B413EF01F0D8A025EF01F02BEF66
:1002240001F00550015CD8B41DEF01F0D8A025EF12
:1002340001F02BEF01F00450005CD8B435EF01F06D
:10024400D8B02BEF01F00A52D8B433EF01F031EFFC
:1002540001F00A52D8B431EF01F033EF01F0D88045
:0E0264001200D8901200D880D8841200120028
:10027200086A096A000E07620364BEEF01F00250C9
:1002820006180A6E075003267E0ED8A04FEF01F023
:10029200035ED8B0C2EF01F053EF01F0035ED8A0C5
:1002A200C6EF01F0028E068E02C00EF001C00BF006
:1002B20000C00DF000500402F4CF0CF00150050212
:1002C200F4CF00F0F3CF08F00402F3500C26F45000
:1002D2000822000E00220D500502F3500C26F450A5
:1002E2000822000E002202500402F3500826F450A5
:1002F200002202500502016A000E0122F35000267C
:10030200F45001220D500602F3500826F450002248
:10031200026A000E012202220B500602F35000264E
:10032200F4500122000E02220E500602F350012662
:10033200F450022202BEA6EF01F008360036013662
:1003420002360306D8B4C6EF01F0B9EF01F0D88047
:10035200800E08640030000E002201220222D8A082
:10036200B9EF01F0023201320032034AC2EF01F06A
:100372000AAE029E000EC8EF01F0010E0BDFC8EFBD
:1003820001F0020EACDEC8EF01F0040EB4DE120082
:0C0392002B903EC042F0C0DE2B80120019
:10039E000D6A086A0050D8B4000C04180A6E0ABE22
:1003AE000D1E0B6A04AE02D0041E042A00AE02D04B
:1003BE00001E002A005004100A6E0ABE1FD0045000
:1003CE00085E003600340836045008260036060E45
:1003DE000C6E00340836045000B0085E00A00826EB
:1003EE0000360C2EF6D700A008260BB015D00DAE99
:1003FE00000C001E002A081E082A000C04AE09D0AC
:10040E0000BE04D00050086E006AF1D7006A002AC0
:10041E00000C001E0B2AD3D7082A0450085CD8A45F
:0E042E00E6D7086A002A00AEE2D7FF0C1200E3
:10043C000C6A0E6A0250D8A437EF02F001C002F029
:10044C0000C001F0006A0E860250D8A437EF02F00B
:10045C0001C002F0016A0E960E880250D8B449EF22
:10046C0002F00E50035ED8A4D8A04EEF02F0D89044
:10047C0002BE53EF02F0003601360236032E3EEF79
:10048C0002F04EEF02F0010E0C6E7FDE56EF02F022
:10049C00020E0C6E2BDE56EF02F0040E0C6E33DEE9
:0204AC0012003C
:1004AE003EC004F03FC005F004C002F005C003F0EA
:1004BE00044A052A40C000F041C001F0404A412ADA
:1004CE0000C0E9FF01C0EAFF02C0E1FF03C0E2FF86
:1004DE00EECFE6FF02C0E9FF03C0EAFFEE5201E0F5
:0C04EE00E3D73EC000F03FC001F0120058
:1004FA00959695949598959A959C959E83968394AE
:10050A00839E839C839A8398D3DDD2DDD1DD838A4F
:10051A0083888386D8DD8396CBDD8386D4DD839674
:10052A00C7DD8386D0DD8396C3DD83988386CBDDE2
:10053A008396BEDD8386C7DD8396839A838E838600
:10054A00C2DD8396B5DD839E83888386BCDD839670
:10055A0083988386B8DD8396ABDD8386B4DD839684
:10056A0083888386B0DD8396A3DD83988386ABDD9B
:10057A008396838E838C838A83888386A4DD83967D
:06058A0097DD2B8012003A
:100590000900F5CFE6FF0006FBE10106F9E11200D4
:1005A0000050086E0150006E016A026A036A0B6A0D
:1005B0000C6A960E036E0A6A00C001F008C000F0D3
:0805C000086A026A3BDF120029
:1005C8000FD0800E306E19D0C00E306E16D0940E3B
:1005D800306E13D0D40E306E10D0800E306E0DD029
:1005E8003050010AEEE03050020AEEE03050030AC3
:1005F800EEE03050040AEEE0F0D73104006E3050DF
:10060800002600C030F000C042F083DD2B90346A31
:1006180034503224E96E000E3320EA6EEE520BE0BD
:1006280034503224E96E000E3320EA6EEECF3EF0ED
:0A063800ACDE342AEDD72B8012004F
:100642003C6A3D6A30C038F031C039F032C03AF00D
:1006520033C03BF03B50FF0A08E13A50FF0A05E184
:100662003950FF0A02E13850FF0A0CE134C03EF073
:1006720035C03FF0190E406E000E416E17DF030EBB
:10068200006EE9D1010E366E3AAE0ED0800E3A18E7
:10069200006E00C03AF0362A34C0E1FF35C0E2FFF6
:1006A2002D0EE66E344A352A000E006E3B1808E124
:1006B20000503A1805E10050391802E13850000A9A
:1006C2000BE134C03EF035C03FF01D0E406E000E0F
:1006D200416EECDE006ABFD13B50FF0A08E13A509E
:1006E200000A05E13950000A02E13850000A0CE123
:1006F20034C03EF035C03FF01F0E406E000E416E1A
:10070200D5DE36C000F0A7D1000E046E000E056ED5
:10071200000E066E7F0E076E38C000F039C001F081
:100722003AC002F03BC003F03CDD010ED8B0000E2F
:10073200006E00521BE038C000F039C001F03AC030
:1007420002F03BC003F0000E046E000E056E200E98
:10075200066E820E076E8CDD00C038F001C039F0E3
:1007620002C03AF003C03BF03D06CED7000E046E45
:10077200000E056E200E066E820E076E38C000F067
:1007820039C001F03AC002F03BC003F00ADD000EAE
:10079200D8B0010E006E00521BE038C000F039C024
:1007A20001F03AC002F03BC003F0CD0E046ECC0E55
:1007B200056E4C0E066E7B0E076E5ADD00C038F0D9
:1007C20001C039F002C03AF003C03BF03D2ACED757
:1007D200FF0E3814086EFF0E3914096E7F0E3A149C
:1007E2000A6E000E3B140B6E08C004F009C005F03F
:1007F2000AC006F00BC007F0043604900536063630
:100802000736000E3814006E000E3914016E000E09
:100812003A14026EFF0E3B14036E00C038F001C0A2
:1008220039F002C03AF003C03BF004503810006EB9
:1008320005503910016E06503A10026E07503B10F7
:10084200036E00C038F001C039F002C03AF003C0B4
:100852003BF07F0E3B5C006E00C037F0010E3B6E3A
:1008620000C004F038C000F039C001F03AC002F014
:100872003BC003F0045007E0003600900136023618
:100882000336FF0FF8D700C038F001C039F002C0BC
:100892003AF003C03BF034C0E1FF35C0E2FF3B5009
:1008A200300FE66E344A352A800E3D18006E800EF7
:1008B200010A005C08E3800E060A006E800E3D18F5
:1008C200005C01E30AD034C0E1FF35C0E2FF2E0E26
:1008D200E66E344A352A010E3C6E060E376E3750EC
:1008E200000A54E03B6A38C000F039C001F03AC057
:1008F20002F03BC003F000360090013602360336A8
:100902000036009001360236033638500026395040
:1009120001223A5002223B50032200C038F001C0AB
:1009220039F002C03AF003C03BF038C000F039C0E1
:1009320001F03AC002F03BC003F0003600900136ED
:100942000236033600C038F001C039F002C03AF076
:1009520003C03BF034C0E1FF35C0E2FF3B50300F33
:10096200E66E344A352A3C50000A0EE13D063D50FF
:10097200000A0AE134C0E1FF35C0E2FF2E0EE66E46
:10098200344A352A010E3C6E3706A9D7FF0E3424AD
:10099200E96EFF0E3520EA6EEE50300A05E1010ED7
:1009A200345E000E355AF2D7FF0E3424E96EFF0E84
:1009B2003520EA6EEE502E0A04E1010E345E000E7E
:1009C200355A3D50000A41E034C0E1FF35C0E2FF34
:1009D200650EE66E344A352A800E3D18006E800E92
:1009E200000A005C0BE234C0E1FF35C0E2FF2D0ECD
:1009F200E66E344A352A3D5000083D6E3DC037F060
:100A0200800E090A006E800E3D18005C0EE20A0E8E
:100A1200046E37C000F0C2DC34C0E1FF35C0E2FF33
:100A22000050300FE66E344A352A0A0E046E37C083
:100A320000F0B4DC08C000F034C0E1FF35C0E2FFD2
:100A42000050300FE66E344A352A34C0E1FF35C01B
:080A5200E2FFE66A006A1200EF
:100A5A0042EC05F09280410EC26ECE0EC16E48DDA8
:0E0A6A009E9C9D8CF28CF28EC284FFD7FFD72B
:100A840010EE19F00C0E006E010E016E780EF66E6B
:0E0A94000A0EF76E000EF86EC8EC02F01200AB
:040A78004E614E007D
:020A7C00300048
:040A7E00494E460097
:020A8200000072
:020000040030CA
:0D000100220F0EFF0181FF0FC00FE00F4026
:00000001FF
