:0400000037EF00F0E6
:1000080000C015F0F0A012D0F0A610D01750000ACA
:100018000CE18280870ED56E480ED76EE50ED66E3F
:10002800F294F28A010E176EF096F090F2A410D0B6
:10003800F294000E165C06E2162A480ED76EE50EFC
:10004800D66E06D0166A176A8290070ED56EF086AD
:0600580015C000F01100CC
:10005E000900F5CFE6FF0006FBE10106F9E112000B
:10006E00166A176A93829490F090F19AF086F28E47
:04007E00FFD7FFD7D2
:020000040030CA
:0D000100220F0EFF0181FF0FC00FE00F4026
:00000001FF
