:100000000EEF00F00000000000EF00F00000000024
:0A0010000000000000000000F3D71C
:10001C00156A3F0E166E060E176E5B0E186E4F0E9F
:10002C00196E660E1A6E6D0E1B6E7D0E1C6E070E13
:10003C001D6E7F0E1E6E670E1F6E070EC16E9290A8
:10004C009292956A016A060E015C3AE2026A0A0E05
:10005C00025C34E2156A190E155C2EE2160EE96E7E
:10006C00000EEA6E0250E926D8B0EA2AEECF83FFE2
:10007C008080340E0C6EF10E0D6E0D2EFED70C2EF4
:10008C00FCD7000000008090160EE96E000EEA6EA0
:10009C000150E926D8B0EA2AEECF83FF8082340ED5
:1000AC000C6EF10E0D6E0D2EFED70C2EFCD7000033
:1000BC0000008092152ACFD7022AC9D7012AC3D7AC
:0400CC00C1D7FFD7C2
:020000040030CA
:0D000100220F0EFF0181FF0FC00FE00F4026
:00000001FF
